:100000000C9475000C9492000C9492000C94920045
:100010000C9492000C9492000C9492000C94920018
:100020000C9492000C9492000C9492000C94920008
:100030000C9492000C9492000C9492000C949200F8
:100040000C9492000C9492000C9492000C949200E8
:100050000C9492000C9492000C9492000C949200D8
:100060000C9492000C94920008000000BE92244967
:10007000123EABAAAA2ABECDCCCC4C3E00000080DA
:10008000BEABAAAAAA3E00000000BF000000803F4D
:100090000000000000084178D3BB4387D1133D190D
:1000A0000E3CC3BD4282AD2B3E68EC8276BED98F3A
:1000B000E1A93E4C80EFFFBE01C4FF7F3F0000007E
:1000C000000007634236B79BD8A71A39685618AEA6
:1000D000BAAB558C1D3CB7CC5763BD6DEDFD753E7D
:1000E000F6177231BF000000803F11241FBECFEF12
:1000F000D8E0DEBFCDBF11E0A0E0B1E0E6EBF9E172
:1001000002C005900D92A432B107D9F711E0A4E224
:10011000B1E001C01D92AA32B107E1F70E941502B9
:100120000C94D90C0C9400008F70992720916400D6
:100130002E7F20936400883091054CF421E030E05C
:10014000082E01C0220F0A94EAF720937E0027E8C8
:1001500020937A0010927B008830910511F488EC8E
:1001600001C0806480937C00089580917A0080644F
:1001700080937A0080917A0086FDFCCF80917C008C
:1001800085FF0DC080917800829586958695837055
:100190002091790094E0299F9001112406C080915C
:1001A000780090917900392F20E0282BC90108951B
:1001B0004F925F926F927F928F929F92AF92BF9277
:1001C000BC01882777FD8095982F0E94580621E270
:1001D0003FE148E550E40E9459052DE33AE84EE43A
:1001E00053E40E94BD052B013C0120E030EE42E9C2
:1001F00055E4752D972D0E9429074B015C0120E0E5
:1002000030E040EA50E4642D752D862D972D0E9434
:10021000BD059B01AC0160E070E080E89FE30E94B7
:10022000580520E030E040EA50E40E9429079B0195
:10023000AC01C501B4010E94BD0520E030E44CE9E9
:1002400055E40E94BD050E94E9064B015C012DE4C6
:1002500035EB46E859E30E9429072DE03FEC4BE5DA
:100260005BE30E9459052B013C012EEA3FE340E38A
:1002700056E3C501B4010E942907A50194010E941B
:1002800029079B01AC01C301B2010E9459052B0152
:100290003C012DEC33E041E953E3C501B4010E9478
:1002A0002907A50194010E942907A50194010E9434
:1002B00029079B01AC01C301B2010E9459059B01B2
:1002C000AC0160E070E080E89FE30E94BD0523E39D
:1002D00033E948E853E40E945805BF90AF909F90DF
:1002E0008F907F906F905F904F9008952F923F92E4
:1002F0004F925F926F927F928F929F92AF92BF9236
:10030000CF92DF92EF92FF920F931F93CF93DF93E1
:10031000CDB7DEB728970FB6F894DEBF0FBECDBFBE
:10032000F82EE92ED62EC72E49015A012801CA01FE
:10033000B9010E9425061B01B801882777FD809529
:10034000982F0E9458069B01AC0160E070E080E2AB
:1003500091E40E948C07562E672E782E192F95E275
:10036000998389E68A832EE22B839C8390E39D8385
:10037000942D905D9E838F831886B101882777FD29
:100380008095982F0E9458069B01AC01C501B401CD
:100390000E945805252D362D472D512F0E942907E3
:1003A0000E942506CB0177FF03C0919581959109A5
:1003B0009F938F933F922F92CE0101969F938F939D
:1003C000CF92DF92EF92FF920E94E4090FB6F89469
:1003D000DEBF0FBECDBF28960FB6F894DEBF0FBEAE
:1003E000CDBFDF91CF911F910F91FF90EF90DF90E4
:1003F000CF90BF90AF909F908F907F906F905F90C5
:100400004F903F902F9008954617570754F4FA01E4
:10041000EE0FFF1FE80FF91F3183208320E030E04B
:1004200002C021E030E0C9010895CF93DF93CDB73A
:10043000DEB7A1970FB6F894DEBF0FBECDBF80E048
:1004400090E00E94940084E090E00E9459038AE0CA
:1004500090E00E94AC082C0156E0652E51E0752E0C
:1004600069E0862E61E0962E71E1A72E71E0B72E2D
:10047000E7E1CE2EE1E0DE2EEE24E394F12CEC0E4B
:10048000FD1E0E94B500382E292E0E94D8009B0127
:10049000AC0102E010E06AE070E0C2010E94760167
:1004A0007F926F925F924F929F928F921F922AE05B
:1004B0002F932F923F92BF92AF92DF92CF921F92D3
:1004C00081E28F93FF92EF920E94E409C2010E94A1
:1004D0004709C7010E9463049FEF21EE84E0915019
:1004E00020408040E1F700C000000FB6F894DEBF66
:1004F0000FBECDBFC6CF37B12AB187B1886387B9E8
:1005000043984598449A439A579802C04398439A0F
:100510004F99FCCF84E090E00197F1F737B92AB901
:10052000089557B14AB128E327B92FEF2AB9459862
:10053000449820912401309125012830310559F447
:1005400043988BB9439AE0E9F1E0DF011197F1F7A5
:1005500043983197F1F720912401309125012430FF
:100560003105F1F443989C01207F33272BB9439A3E
:1005700020E931E0F9013197F1F74398F90131971A
:10058000F1F7439864E0880F991F6A95E1F78BB9FA
:10059000439AC9010197F1F74398C9010197F1F70F
:1005A00057B94AB90895EF92FF92CF93DF937C0138
:1005B000D7B1CAB188E387B98FEF8AB9CB01806818
:1005C0000E949102459A44988091240190912501BE
:1005D000089759F44398EBB8439A80E991E0FC01FD
:1005E0003197F1F743980197F1F7809124019091A9
:1005F00025010497F1F44398C701807F99278BB9AF
:10060000439A20E931E0C9010197F1F74398C90104
:100610000197F1F7439874E0EE0CFF1C7A95E1F72F
:10062000EBB8439AC9010197F1F74398C9010197C3
:10063000F1F7D7B9CAB9DF91CF91FF90EF90089544
:1006400037B12AB188E387B98FEF8AB945984498C2
:100650008091240190912501089761F4439881E0ED
:100660008BB9439A80E49FE1FC013197F1F74398FD
:100670000197F1F780912401909125010497B1F43D
:1006800043981BB8439A80E49FE1FC013197F1F74E
:100690004398FC013197F1F7439840E14BB9439AF5
:1006A000FC013197F1F743980197F1F737B92AB96F
:1006B0000895CF92DF92EF92FF927C0187B1886319
:1006C00087B98FEF8AB92FE782E392E0215080400B
:1006D0009040E1F700C0000080E390E00E949102AA
:1006E00080E190E40197F1F780E390E00E949102AD
:1006F000E0E9CE2EDD24D394C6010197F1F780E323
:1007000090E00E949102C6010197F1F728E0E216FD
:10071000F104A9F4F0922501E092240188E390E02D
:100720000E94910288E090E00E9491020E942003C2
:1007300086E090E00E9491028FE090E020C084E08B
:10074000E816F10411F5F0922501E0922401439896
:1007500080E28BB9439A80E699E00197F1F788E24D
:1007600090E00E94910288E090E00E9491020E9435
:10077000200386E090E00E9491028CE090E0FF90E0
:10078000EF90DF90CF900C949102FF90EF90DF906C
:10079000CF900895CF92DF92EF92FF920F931F9325
:1007A000CF93DF938C01C12CD12CA0E0B0E0C0E04E
:1007B000D0E00AC0F60131966894EE24E5F8FE1008
:1007C00002C02196DF016F01C417D50749F4EC017F
:1007D000CA0FDB1FF90140E050E0A21BB30B0DC0B4
:1007E000F801F1908F01FF2091F3C616D70614F39C
:1007F000EECF1193AF01421B530B1991103241F010
:10080000112331F0CD018E0F9F1F861797078CF3B0
:10081000F901E40FF51F1082CA01DF91CF911F91FA
:100820000F91FF90EF90DF90CF900895AC01FC0105
:1008300020E030E00BC08191803219F42F5F3F4FF0
:1008400005C0811103C02F5F3F4F06C0CF01841B3D
:10085000950B861797077CF3C90108951F93CF93D3
:10086000DF93FC01A0E0B0E020E030E0C0E0D0E0A9
:1008700005C01196103211F421969D01C417D507B9
:1008800049F4422F532FFC01E40FF51F40E050E0E4
:10089000CF010CC011911123A1F3A617B7074CF398
:1008A000F0CFAF01481B590B2F5F3F4FA191A032F2
:1008B00029F0AA2319F0261737079CF3CA01DF9104
:1008C000CF911F910895AF92BF92CF92DF92EF9296
:1008D000FF925C010E942003E12CF12CC12CD12C51
:1008E00026C08A30B1F590E1E916F1046CF58FEF7E
:1008F000E81AF80A07C090E4C916D104FCF420E114
:10090000E22EF12C90E4C92ED12CF501EE0DFF1D45
:10091000B601808190E00E94D3028FEFE81AF80AB6
:100920009FEFC91AD90A80E2E816F104BCF4F50178
:10093000EE0DFF1D80818111D4CF10C08A3071F07F
:1009400080E1E82EF12CE1CF90E1E916F10431F4D9
:10095000D2CF90E1E916F104C1F6CDCFFF90EF9030
:10096000DF90CF90BF90AF9008952F923F924F921B
:100970005F926F927F928F929F92AF92BF92CF922F
:10098000DF92EF92FF920F931F93CF93DF93CDB738
:10099000DEB7C056D1090FB6F894DEBF0FBECDBF8B
:1009A0003C012B01BC01C2010E9416044C01A12C88
:1009B000B12CE12CF12CC12CD12C1AE01C0181E0CE
:1009C000281A310800E24AC09E012F5F3F4FA5015F
:1009D000B301C2010E94CA039C01C601820F931F8A
:1009E000419764F0E1E4F0E0EC0FFD1FEE0DFF1D18
:1009F00010838FEFE81AF80AC12CD12CFE01319632
:100A000040E050E081E490E08C0F9D1F8E0D9F1D13
:100A100007C06191DC01A40FB51F6C934F5F5F4F5E
:100A200042175307B4F337FF02C020E030E0C20E94
:100A3000D31EE20EF31EA214B3046CF4E1E4F0E062
:100A4000EC0FFD1FEE0DFF1D00838FEFE81AF80A73
:100A50008FEFC81AD80A8FEFA81AB80AA814B904D9
:100A60000CF4B2CFE1E4F0E0EC0FFD1FEE0DFF1D42
:100A70001082CE018F5B9F4F0E946304C05ADF4FEC
:100A80000FB6F894DEBF0FBECDBFDF91CF911F919F
:100A90000F91FF90EF90DF90CF90BF90AF909F901D
:100AA0008F907F906F905F904F903F902F90089520
:100AB0005058BB27AA270ED04DC13ED130F043D1AC
:100AC00020F031F49F3F11F41EF433C10EF4E09591
:100AD000E7FB29C1E92F4FD180F3BA1762077307EB
:100AE0008407950718F071F49EF567C10EF4E09540
:100AF0000B2EBA2FA02D0B01B90190010C01CA01D8
:100B0000A0011124FF27591B99F0593F50F4503E82
:100B100068F11A16F040A22F232F342F4427585F74
:100B2000F3CF469537952795A795F0405395C9F78C
:100B30007EF41F16BA0B620B730B840BBAF0915044
:100B4000A1F0FF0FBB1F661F771F881FC2F70EC0E3
:100B5000BA0F621F731F841F48F4879577956795B6
:100B6000B795F7959E3F08F0B3CF9395880F08F09F
:100B70009927EE0F9795879508950CD0EBC0E3D099
:100B800040F0DAD030F021F45F3F19F0CCC05111C1
:100B900015C1CFC0F0D098F39923C9F35523B1F311
:100BA000951B550BBB27AA2762177307840738F0DC
:100BB0009F5F5F4F220F331F441FAA1FA9F333D03B
:100BC0000E2E3AF0E0E830D091505040E695001CEF
:100BD000CAF729D0FE2F27D0660F771F881FBB1FAB
:100BE000261737074807AB07B0E809F0BB0B802D85
:100BF000BF01FF2793585F4F2AF09E3F510568F0D1
:100C000092C0DCC05F3FECF3983EDCF386957795AD
:100C10006795B795F7959F5FC9F7880F911D9695D2
:100C2000879597F90895E1E0660F771F881FBB1F2E
:100C3000621773078407BA0720F0621B730B840BDB
:100C4000BA0BEE1F88F7E095089504D06894B111AF
:100C5000B5C0089598D088F09F5790F0B92F992784
:100C6000B751A0F0D1F0660F771F881F991F1AF0B7
:100C7000BA95C9F712C0B13081F09FD0B1E00895A4
:100C80009CC0672F782F8827B85F39F0B93FCCF325
:100C9000869577956795B395D9F73EF490958095AD
:100CA000709561957F4F8F4F9F4F0895E89409C0CD
:100CB00097FB3EF490958095709561957F4F8F4F8F
:100CC0009F4F9923A9F0F92F96E9BB279395F695A5
:100CD000879577956795B795F111F8CFFAF4BB0F23
:100CE00011F460FF1BC06F5F7F4F8F4F9F4F16C087
:100CF000882311F096E911C0772321F09EE8872F11
:100D0000762F05C0662371F096E8862F70E060E0CC
:100D10002AF09A95660F771F881FDAF7880F969545
:100D2000879597F9089597F99F6780E870E060E0EC
:100D300008959FEF80EC089500240A941616170674
:100D400018060906089500240A94121613061406BC
:100D500005060895092E0394000C11F4882352F01F
:100D6000BB0F40F4BF2B11F460FF04C06F5F7F4FD7
:100D70008F4F9F4F089557FD9058440F551F59F0BE
:100D80005F3F71F04795880F97FB991F61F09F3F78
:100D900079F087950895121613061406551FF2CFA1
:100DA0004695F1DF08C0161617061806991FF1CFF1
:100DB00086957105610508940895E894BB27662718
:100DC0007727CB0197F908950EF023C1B2CF68942D
:100DD000AACFD9DFC8F39923D1F3C6F3DF93CF931A
:100DE0001F930F93FF92C92FDD2788232AF02197A5
:100DF000660F771F881FDAF720E030E040E85FEBEE
:100E00009FE3883920F0803E30F021968F7751DEC5
:100E1000E8E6F0E003C04DDEE5E9F0E008D18B0143
:100E2000BE01EC01FB2E6F5771097595771F880B7A
:100E3000990B3EDF28E132E741E35FE316D0AF2DA7
:100E40009801AE01FF900F911F91CF91DF9142DE8B
:100E500081CF0BD07FCF70DF28F075DF18F095239E
:100E600009F061CF66CF1124A9CF85DFA0F3959F4C
:100E7000D1F3950F50E0551F629FF001729FBB2781
:100E8000F00DB11D639FAA27F00DB11DAA1F649F2D
:100E90006627B00DA11D661F829F2227B00DA11DE0
:100EA000621F739FB00DA11D621F839FA00D611D66
:100EB000221F749F3327A00D611D231F849F600D87
:100EC000211D822F762F6A2F11249F5750408AF0C0
:100ED000E1F088234AF0EE0FFF1FBB1F661F771F4C
:100EE000881F91505040A9F79E3F510570F01BCFCD
:100EF00065CF5F3FECF3983EDCF386957795679579
:100F0000B795F795E7959F5FC1F7FE2B880F911D69
:100F10009695879597F90895FA01EE0FFF1F309681
:100F20002105310599F16115710561F48038BFE340
:100F30009B0749F168949038810561F08038BFEFD4
:100F40009B0741F0992342F5FF3FE105310521055B
:100F500011F1E8940894E795D901AA2329F4AB2F5D
:100F6000BE2FF85FD0F310C0FF5F70F4A695E0F7D6
:100F7000F73950F019F0FF3A38F49F779F930CD06F
:100F80000F9007FC905808953EF0D3CE60E070E0DB
:100F900080E89FE308954FE79F775F934F933F93D8
:100FA0002F9317DF2F913F914F915F9152DF05C033
:100FB00019F40EF0B8CE01CFBCCEE5DEC8F39638FA
:100FC000C0F707F80F92E8942BE33AEA48EB5FE7A3
:100FD0004EDF0F920F920F924DB75EB70F9289D0EE
:100FE000E2ECF0E024D04F915F91EF91FF91E59515
:100FF000EE1FFF1F49F0FE57E0684427EE0F441F25
:10100000FA95E1F74195550B40D00F9007FE34C09B
:1010100008959F3F31F0915020F48795779567951B
:10102000B795880F911D9695879597F90895DF9349
:10103000CF931F930F93FF92EF92DF927B018C016E
:10104000689405C0DA2EEF0110DFFE01E894A59147
:101050002591359145915591AEF3EF013BDDFE01B0
:101060009701A801DA9479F7DF90EF90FF900F9144
:101070001F91CF91DF9108959B01AC0160E070E07A
:1010800080E89FE37ACD4FCEC4CF7DDEE8F399238D
:10109000D9F3940F511DBBF39150504094F059F087
:1010A000882332F0660F771F881F91505040C1F798
:1010B0009E3F510544F7880F911D9695879597F9A6
:1010C00008955F3FACF0983E9CF0BB2786957795DE
:1010D0006795B79508F4B1609395C1F7BB0F58F7C2
:1010E00011F460FFE8CF6F5F7F4F8F4F9F4FE3CFCB
:1010F00065CEFA01DC01AA0FBB1F9B01AC01BF57F3
:1011000028F422273327442750781FC0B75188F48A
:10111000AB2F0024469537952795011CA395D2F354
:10112000002069F0220F331F441FB395DAF30DD06E
:10113000BFCC61307105A0E88A07B94630F49B0145
:10114000AC016627772788279078309621F0208396
:1011500031834283538308950F931F93CF93DF937B
:101160008230910510F482E090E0E0912801F09146
:10117000290120E030E0C0E0D0E023C0408151816F
:1011800048175907A8F04817590761F482819381DD
:10119000209719F09B838A832EC090932901809316
:1011A000280129C02115310529F04217530710F0F5
:1011B000A90102C0BE01DF0102811381EF019A0182
:1011C000F8013097D9F62115310509F1281B390BA3
:1011D0002430310590F412968D919C9113976115EE
:1011E000710521F0FB019383828304C09093290150
:1011F00080932801FD01329644C0FD01E20FF31FE8
:1012000081939193225031092D933C933AC02091C0
:10121000260130912701232B41F4209102013091C6
:101220000301309327012093260120910001309182
:1012300001012115310541F42DB73EB7409104015C
:1012400050910501241B350BE0912601F0912701F7
:10125000E217F307A0F42E1B3F0B2817390778F08D
:10126000AC014E5F5F4F2417350748F04E0F5F1FEC
:1012700050932701409326018193919302C0E0E0AF
:10128000F0E0CF01DF91CF911F910F910895EF9280
:10129000FF920F931F93CF93DF93009709F48FC0B2
:1012A000DC01129713961C921E921297E09028016F
:1012B000F0902901E114F10489F42D913C911197EA
:1012C000280F391F809126019091270182179307DB
:1012D00089F5B0932701A093260171C0E70120E0B2
:1012E00030E001C0EA01CA17DB0738F44A815B81AC
:1012F0009E0141155105B1F722C0BC016250710930
:10130000FB01D383C28300811181AC01400F511FC7
:101310004C175D0761F448815981400F511F4E5FA2
:101320005F4F518340834A815B8153834283211500
:10133000310529F4B0932901A093280140C0F90197
:10134000B383A283E90169917991C60FD71FAC17C6
:10135000BD0779F4DC015E914E91460F571F4E5F39
:101360005F4F5183408312968D919C911397938385
:101370008283A0E0B0E002C0D7017C01F701828146
:1013800093810097C9F7C701029620813181820FAE
:10139000931F20912601309127012817390779F4EE
:1013A000109729F4109229011092280104C0139675
:1013B0001C921E921297F0922701E0922601CDB75F
:1013C000DEB7E6E00C94CA0CEF92FF92CF93DF9366
:1013D000CDB7DEB72E970FB6F894DEBF0FBECDBFE8
:1013E000ED88FE888F89988D26E02C83FA82E98229
:1013F00097FF02C080E090E801979E838D83CE0125
:101400004B96AC01698D7A8DCE0101960E94210A1E
:101410004D815E8157FD0AC02F81388542175307E1
:101420000CF49A01F701E20FF31F10822E960FB60B
:10143000F894DEBF0FBECDBFDF91CF91FF90EF904C
:101440000895ACE0B0E0E7E2FAE00C94A20C6C0185
:101450005B017A01FC0117821682838181FFC1C181
:1014600066246394712C6C0E7D1EF6019381F50148
:1014700093FD859193FF81915F01882309F4ADC1AC
:10148000853239F493FD859193FF81915F01853217
:1014900029F4B60190E00E940E0CE7CF512C10E029
:1014A00020E02032A8F48B3261F028F4803251F031
:1014B000833271F40BC08D3239F0803349F42160EE
:1014C00028C02260246025C0286023C0206121C07C
:1014D00027FD27C0382F30533A3078F426FF06C056
:1014E000FAE05F9E300D1124532E13C04AE0149F82
:1014F000300D1124132F20620CC08E3221F426FDF2
:101500006CC1206406C08C3611F4206802C0883695
:1015100041F4F50193FD859193FF81915F01811164
:10152000C0CF982F9554933018F09052933030F4E8
:10153000F4E0EF0EF11C4FE349830EC0833631F027
:10154000833779F0833509F05DC023C0F7018081CE
:10155000898342E0E40EF11C44244394512C43015E
:1015600015C0170152E0250E311CF70180809180D3
:1015700026FF03C0652D70E002C06FEF7FEFC4014E
:101580002C870E94030C2C0171012C85022F0F77F0
:1015900017C01701F2E02F0E311CF70180809180F7
:1015A00026FF03C0652D70E002C06FEF7FEFC4011E
:1015B0002C870E94F80B2C012C85022F00687101EA
:1015C00003FD1CC006C0B60180E290E00E940E0C34
:1015D0001150812F90E048165906A8F30FC0F4016E
:1015E00007FD859107FF81914F01B60190E00E94B0
:1015F0000E0C11111150F1E04F1A51084114510411
:1016000071F7E8C0843611F0893651F5F70127FFEC
:1016100007C0608171818281938144E050E008C0FD
:1016200060817181882777FD8095982F42E050E096
:10163000E40EF51E3FE6432E422297FF09C0909527
:101640008095709561957F4F8F4F9F4F50E8452A49
:101650002AE030E0A3010E94440C882E861840C086
:10166000022F853721F40F7E2AE030E01FC0097F6A
:101670008F36A1F020F4883509F0AFC00BC0803759
:1016800021F0883709F0A9C001C0006104FF09C03A
:10169000046007C024FF08C0066006C028E030E0F0
:1016A00005C020E130E002C020E132E0F70107FF91
:1016B00007C0608171818281938144E050E006C05F
:1016C0006081718180E090E042E050E0E40EF51E20
:1016D000A3010E94440C882E86188FE7482E4022D2
:1016E00046FE0BC0042D0E7F851450F444FE0AC044
:1016F00042FC08C0042D0E7E05C0982C042D03C0AA
:10170000982C01C0952C04FF0DC0FE01E80DF11DC1
:101710008081803311F4097E09C002FF06C09394D2
:10172000939404C0802F867809F0939403FD12C02F
:1017300000FF0DC0582C911650F4510E5918912EDF
:1017400006C0B60180E290E00E940E0C93949116C0
:10175000C0F304C0911610F4191901C010E004FF81
:1017600010C0B60180E390E00E940E0C02FF1EC084
:1017700001FF03C088E590E002C088E790E0B60171
:101780000CC0802F867891F001FD02C080E201C07C
:101790008BE207FD8DE2B60190E00E940E0C06C0C0
:1017A000B60180E390E00E940E0C5A948514C0F3B9
:1017B0008A94F301E80DF11DB601808190E00E944A
:1017C0000E0C8110F5CF06C0B60180E290E00E94B9
:1017D0000E0C11501111F8CF48CEF6012681378139
:1017E00002C02FEF3FEFC9012C96E2E10C94BE0C32
:1017F000FC010590615070400110D8F780959095DC
:101800008E0F9F1F0895FC016150704001900110E0
:10181000D8F7809590958E0F9F1F0895CF92DF92F5
:10182000EF92FF926C017B01DB0113968C9181FD9D
:1018300004C0CC24CA94DC2C21C082FF10C0FB0160
:101840002681378184819581281739078CF401908E
:10185000F081E02DC192DB01ED93FC9309C0DB0127
:101860001896ED91FC9119978C2D0995892B09F704
:10187000F70186819781019697838683C601FF9041
:10188000EF90DF90CF900895FA01AA27283051F108
:10189000203181F1E8946F936E7F6E5F7F4F8F4FA1
:1018A0009F4FAF4FB1E03ED0B4E03CD0670F781F00
:1018B000891F9A1FA11D680F791F8A1F911DA11DE5
:1018C0006A0F711D811D911DA11D20D009F468941E
:1018D0003F912AE0269F11243019305D3193DEF6C6
:1018E000CF010895462F4770405D4193B3E00FD07C
:1018F000C9F7F6CF462F4F70405D4A3318F0495D67
:1019000031FD4052419302D0A9F7EACFB4E0A69549
:101910009795879577956795BA95C9F7009761056B
:10192000710508959B01AC010A2E069457954795C1
:1019300037952795BA95C9F7620F731F841F951FB6
:10194000A01D08952F923F924F925F926F927F92C7
:101950008F929F92AF92BF92CF92DF92EF92FF92BF
:101960000F931F93CF93DF93CDB7DEB7CA1BDB0B6B
:101970000FB6F894DEBF0FBECDBF09942A88398810
:1019800048885F846E847D848C849B84AA84B98417
:10199000C884DF80EE80FD800C811B81AA81B98123
:1019A000CE0FD11D0FB6F894DEBF0FBECDBFED0137
:0619B0000895F894FFCF3A
:1019B60000002A01200020430054656D70203D2060
:1019C600004130203D2000257325692563257325B8
:0419D6007325730002
:00000001FF
