:100000000C9434000C9451000C9451000C94510049
:100010000C9451000C9451000C9451000C9451001C
:100020000C9451000C9451000C9451000C9451000C
:100030000C9451000C9451000C9451000C945100FC
:100040000C9451000C9451000C946B000C94AE0075
:100050000C9451000C9451000C9451000C945100DC
:100060000C9451000C94510011241FBECFEFD8E026
:10007000DEBFCDBF11E0A0E0B1E0E2EFF9E002C0E9
:1000800005900D92A630B107D9F711E0A6E0B1E0D6
:1000900001C01D92A832B107E1F70E94B5010C948E
:1000A000F7040C940000BC01F89480E197E20E94F0
:1000B000EE01615071097093C5006093C40088E936
:1000C0008093C1008EE08093C200109206011092CE
:1000D0000701789408951F920F920FB60F92112482
:1000E0008F939F93EF93FF939091C60080910601A9
:1000F000803140F4E82FF0E0E85FFE4F90838F5F9F
:1001000080930601FF91EF919F918F910F900FBE09
:100110000F901F901895809106018823D9F0F894CC
:100120002091080130E070910601872F90E001973F
:1001300060E006C0FA01E85FFE4F418140836F5FD7
:10014000462F50E048175907ACF3715070930601E1
:10015000789402C02FEF3FEFC90108951F920F92CC
:100160000FB60F9211242F933F934F935F938F936A
:100170009F93EF93FF93409107014423C1F0809137
:1001800018018093C600842F90E0019750E006C0CC
:10019000F901E85EFE4F218120835F5F252F30E06B
:1001A00028173907ACF341504093070105C08091EF
:1001B000C1008F7D8093C100FF91EF919F918F913E
:1001C0005F914F913F912F910F900FBE0F901F9015
:1001D0001895F89490910701911107C02091C000E3
:1001E00025FF05C08093C6000FC0903180F4E92F31
:1001F000F0E0E85EFE4F80839F5F9093070180915F
:10020000C10080628093C10021E030E002C020E0A4
:1002100030E07894C90108958091C10084FF08C03E
:100220000E948B009C012F3F8FEF3807C9F302C05B
:100230002FEF3FEFC9010895CF93C82F8091C100E0
:1002400083FF0DC0CA3019F48DE00E941C018C2F71
:100250000E94E900892BD9F320E030E002C02FEFA3
:100260003FEFC901CF910895EF92FF920F931F9333
:10027000CF93DF937B018C01EC0121E0E21AF108BE
:100280000FC00E948B008F3F2FEF9207D1F38D306C
:10029000910511F4188201C0888321960D9731F0E1
:1002A000CE01801B910B8E159F055CF3DF91CF91E2
:1002B0001F910F91FF90EF900895BF92CF92DF9220
:1002C000EF92FF920F931F93CF93DF936B017C010B
:1002D000EC0181E0C81AD10817C00E948B008C0184
:1002E0000F3F8FEF1807C9F30D30110511F4188275
:1002F00007C0B02E08838B2D0E94E900892BD9F30B
:1003000021960D30110531F0CE018E199F098C1503
:100310009D051CF38DE00E94E900892BD9F38AE04A
:100320000E94E900892BD9F3DF91CF911F910F91A2
:10033000FF90EF90DF90CF90BF900895CF93DF9321
:10034000EC010DC08A3029F48DE00E94E900892B70
:10035000D9F388810E94E900892BD9F321968881FD
:100360008111F0CFDF91CF910895CF93DF93CDB777
:10037000DEB7D4500FB6F894DEBF0FBECDBF80E617
:1003800090E00E945300C12CD12CEE24E394F12C78
:10039000EC0EFD1E90E0A92E91E0B92E14E060E075
:1003A00074E0C7010E94340146018FEF881A980A51
:1003B000DF92CF92FF92EF92BF92AF921F931F9264
:1003C000FF92EF920E940202C7010E949E010FB6A7
:1003D000F894DEBF0FBECDBF6401E1CFAA1BBB1BEB
:1003E00051E107C0AA1FBB1FA617B70710F0A61B35
:1003F000B70B881F991F5A95A9F780959095BC0156
:10040000CD010895EF92FF92CF93DF93CDB7DEB782
:100410002E970FB6F894DEBF0FBECDBFED88FE88D5
:100420008F89988D26E02C83FA82E98297FF02C09B
:1004300080E090E801979E838D83CE014B96AC01BE
:10044000698D7A8DCE0101960E943F024D815E81B9
:1004500057FD0AC02F813885421753070CF49A01C3
:10046000F701E20FF31F10822E960FB6F894DEBF4D
:100470000FBECDBFDF91CF91FF90EF900895ACE01C
:10048000B0E0E5E4F2E00C94C0046C015B017A0199
:10049000FC0117821682838181FFC1C166246394A7
:1004A000712C6C0E7D1EF6019381F50193FD8591F3
:1004B00093FF81915F01882309F4ADC1853239F43E
:1004C00093FD859193FF81915F01853229F4B601F7
:1004D00090E00E942C04E7CF512C10E020E0203265
:1004E000A8F48B3261F028F4803251F0833271F439
:1004F0000BC08D3239F0803349F4216028C022606E
:10050000246025C0286023C0206121C027FD27C0AA
:10051000382F30533A3078F426FF06C0FAE05F9E59
:10052000300D1124532E13C04AE0149F300D1124B6
:10053000132F20620CC08E3221F426FD6CC1206482
:1005400006C08C3611F4206802C0883641F4F501EB
:1005500093FD859193FF81915F018111C0CF982F09
:100560009554933018F09052933030F4F4E0EF0E3D
:10057000F11C4FE349830EC0833631F0833779F0A5
:10058000833509F05DC023C0F7018081898342E093
:10059000E40EF11C44244394512C430115C017016F
:1005A00052E0250E311CF7018080918026FF03C0A8
:1005B000652D70E002C06FEF7FEFC4012C870E94B1
:1005C00021042C0171012C85022F0F7717C0170110
:1005D000F2E02F0E311CF7018080918026FF03C0CE
:1005E000652D70E002C06FEF7FEFC4012C870E9481
:1005F00016042C012C85022F0068710103FD1CC01C
:1006000006C0B60180E290E00E942C041150812FB8
:1006100090E048165906A8F30FC0F40107FD859134
:1006200007FF81914F01B60190E00E942C04111147
:100630001150F1E04F1A51084114510471F7E8C00C
:10064000843611F0893651F5F70127FF07C0608124
:1006500071818281938144E050E008C060817181A2
:10066000882777FD8095982F42E050E0E40EF51E34
:100670003FE6432E422297FF09C0909580957095E2
:1006800061957F4F8F4F9F4F50E8452A2AE030E019
:10069000A3010E946204882E861840C0022F85376D
:1006A00021F40F7E2AE030E01FC0097F8F36A1F0D1
:1006B00020F4883509F0AFC00BC0803721F08837AF
:1006C00009F0A9C001C0006104FF09C0046007C0AF
:1006D00024FF08C0066006C028E030E005C020E125
:1006E00030E002C020E132E0F70107FF07C060817F
:1006F00071818281938144E050E006C06081718104
:1007000080E090E042E050E0E40EF51EA3010E947C
:100710006204882E86188FE7482E402246FE0BC0C2
:10072000042D0E7F851450F444FE0AC042FC08C01C
:10073000042D0E7E05C0982C042D03C0982C01C0FA
:10074000952C04FF0DC0FE01E80DF11D8081803362
:1007500011F4097E09C002FF06C09394939404C06B
:10076000802F867809F0939403FD12C000FF0DC01E
:10077000582C911650F4510E5918912E06C0B601FE
:1007800080E290E00E942C0493949116C0F304C080
:10079000911610F4191901C010E004FF10C0B60141
:1007A00080E390E00E942C0402FF1EC001FF03C002
:1007B00088E590E002C088E790E0B6010CC0802F89
:1007C000867891F001FD02C080E201C08BE207FD56
:1007D0008DE2B60190E00E942C0406C0B60180E3D1
:1007E00090E00E942C045A948514C0F38A94F3017B
:1007F000E80DF11DB601808190E00E942C0481106B
:10080000F5CF06C0B60180E290E00E942C041150A2
:100810001111F8CF48CEF6012681378102C02FEFA3
:100820003FEFC9012C96E2E10C94DC04FC01059039
:10083000615070400110D8F7809590958E0F9F1FE2
:100840000895FC016150704001900110D8F7809527
:1008500090958E0F9F1F0895CF92DF92EF92FF9297
:100860006C017B01DB0113968C9181FD04C0CC24CB
:10087000CA94DC2C21C082FF10C0FB012681378185
:1008800084819581281739078CF40190F081E02D3F
:10089000C192DB01ED93FC9309C0DB011896ED9149
:1008A000FC9119978C2D0995892B09F7F701868101
:1008B0009781019697838683C601FF90EF90DF9022
:1008C000CF900895FA01AA27283051F1203181F103
:1008D000E8946F936E7F6E5F7F4F8F4F9F4FAF4F48
:1008E000B1E03ED0B4E03CD0670F781F891F9A1F5B
:1008F000A11D680F791F8A1F911DA11D6A0F711D0F
:10090000811D911DA11D20D009F468943F912AE01A
:10091000269F11243019305D3193DEF6CF01089502
:10092000462F4770405D4193B3E00FD0C9F7F6CF33
:10093000462F4F70405D4A3318F0495D31FD4052FB
:10094000419302D0A9F7EACFB4E0A6959795879591
:1009500077956795BA95C9F7009761057105089570
:100960009B01AC010A2E069457954795379527951C
:10097000BA95C9F7620F731F841F951FA01D0895B4
:100980002F923F924F925F926F927F928F929F929F
:10099000AF92BF92CF92DF92EF92FF920F931F938D
:1009A000CF93DF93CDB7DEB7CA1BDB0B0FB6F8943E
:1009B000DEBF0FBECDBF09942A88398848885F847E
:1009C0006E847D848C849B84AA84B984C884DF80EF
:1009D000EE80FD800C811B81AA81B981CE0FD11DD3
:1009E0000FB6F894DEBF0FBECDBFED010895F894A9
:0209F000FFCF37
:0609F200257325690000D9
:00000001FF
